:020000040800F2
:10000000B8EC0120C50100086D7E000817570008F4
:10001000797C00083D05000851C40008000000007C
:10002000000000000000000000000000ABA000087D
:10003000BF1A0008000000003D86000831A9000832
:10004000DF010008DF010008DF010008DF01000810
:10005000DF010008DF010008091D0008DF010008BA
:100060006D1D0008DF010008DF010008DF01000846
:10007000DF010008DF010008DF010008DF010008E0
:10008000DF010008DF010008DF010008DF010008D0
:10009000DF010008DF010008DF010008DF010008C0
:1000A000DF010008B1AA0008DF010008DF01000835
:1000B000DF010008DF010008DF010008DF010008A0
:1000C000DF010008DF010008DF010008DF01000890
:1000D000DF010008A5C30008DF010008DF010008F8
:1000E000DF010008DF010008DF010008DF01000870
:1000F000DF010008DF010008DF010008DF01000860
:10010000DF010008DF010008DF0100085196000848
:10011000DF010008DF010008DF0100081DBB000847
:10012000DF010008DF010008DF010008A519000851
:10013000DF010008DF010008DF010008DF0100081F
:10014000DF010008DF010008DF010008DF0100080F
:10015000DF010008DF010008DF010008DF010008FF
:10016000DF010008DF010008DF010008DF010008EF
:10017000DF010008DF010008DF01000800000000C7
:10018000DF010008DF010008DF010008DF010008CF
:10019000DF010008DF010008DF010008DF010008BF
:1001A000DF010008DF010008DF010008DFF810D0E0
:1001B00000F042F80048004739F00008AFF3008033
:1001C000B8EC01200648804706480047FEE7FEE7F6
:1001D000FEE7FEE7FEE7FEE7FEE7FEE7FEE7FEE7F7
:1001E0004DAA0008AD010008D2B201E000F8012BD1
:1001F000491EFBD270470022F6E710B513460A46A7
:1002000004461946FFF7F0FF204610BD30B50B46F7
:10021000014600202022012409E021FA02F59D4236
:1002200005D303FA02F5491B04FA02F52844151E0A
:10023000A2F10102F1DC30BD064C074D06E0E0689A
:1002400040F0010394E8070098471034AC42F6D31D
:10025000FFF7B0FF84240108A424010870B58C18AE
:1002600010F8015B15F0070301D110F8013B2A11CA
:1002700006D110F8012B03E010F8016B01F8016BB7
:100280005B1EF9D12B0705D40023521E0DD401F8B3
:10029000013BFAE710F8013BCB1A921C03E013F87C
:1002A000015B01F8015B521EF9D5A142D8D30020B1
:1002B00070BD000010B558494A6822F440324A60C7
:1002C0004A6843681A434A600268526822F480729E
:1002D00003685A6002685368026943EA02220368AD
:1002E0005A600268526822F0407203685A600268DD
:1002F000526883681A4303685A600268926822F45D
:10030000006203689A6002689268C3681A430368CF
:100310009A60424B826A9A4218D00268926822F030
:10032000706203689A6002689268836A1A4303687D
:100330009A600268926822F0405203689A600268EC
:100340009268C36A1A4303689A600BE00268926875
:1003500022F0706203689A600268926822F040524C
:1003600003689A600268926822F0020203689A6049
:1003700002689368826943EA420203689A60026AEB
:10038000D2B10268526842F4006203685A6002689F
:10039000526822F4604203685A6002685368426AF5
:1003A000521E4FF4604494FAA4F4B4FA84F4A240C8
:1003B00013430268536005E00268526822F4006249
:1003C00003685A600268D26A22F470020368DA6233
:1003D0000268D36A828B521E43EA02520368DA62D1
:1003E0000268926822F4007203689A600268936857
:1003F000026B43EA422203689A600268926822F420
:10040000806203689A6002689368426943EA8222C4
:1004100003689A6010BD0000002301400100000F36
:100420001FB5044600940120019000200290694607
:10043000014801F01FFE1FBD6CCC012010B5044621
:10044000074804700020074908602146064800F06C
:1004500057F901200549087023200549087010BD8F
:10046000C30200203404004049494900B50200207D
:10047000C202002010B504462146024803F09AFE4D
:1004800010BD0000E8CB012010B5044803F0A5FE24
:10049000042801D0012010BD0020FCE7E8CB01209A
:1004A00010B5002400F014F8012801D0012010BD7F
:1004B000064803F0A6FE044634B94FF40061034831
:1004C00003F02CFD00B101242046F0E7E8CB012029
:1004D00008B5012000909DF8000008BD2DE9F84303
:1004E00004460D4616461F464FF0000833462A467E
:1004F00021460548009703F01FFF08B14FF001089F
:100500004046BDE8F8830000E8CB01202DE9F84320
:1005100004460D4616461F464FF0000833462A464D
:1005200021460548009704F02DF808B14FF0010866
:100530004046BDE8F8830000E8CB012000BFFEE79D
:1005400000214B4A11804B4A11704B4A11604B4AB3
:1005500011604FF6FF714A4A1180002003E000212C
:10056000484A1154401CB0F5DC4FF8D300201DE080
:100570004FF6FF71444A22F81010444A22F8101036
:10058000434A22F81010FF21424A11544FF0FF3124
:10059000414A42F8201000214200404B23F812103B
:1005A00000224100491C23F81120401CB0F5007FB7
:1005B000DED3002007E00021394A42F82010394AF2
:1005C00022F81010401CB0F5006FF4D30021364A19
:1005D0001180364A1180364A1180364A11804FF612
:1005E000FF71354A1180354A11800021344A11705B
:1005F000344A11704FF6FF71334A1180002006E033
:100600000021324A1154324A22F81010401C14289A
:10061000F6D3002003E000212E4A1154401C0F287D
:10062000F9D3002003E000212B4A1154401C642818
:10063000F9D3002003E00021284A1154401CB0F5F2
:10064000D27FF8D30021264A1160264A1160342156
:10065000254A11700021254A1170254A1170254A3A
:1006600011700121244A1180244A11807047000032
:10067000A6000020C8000020A0000020B400002038
:100680007C0000200000FFD3006EFFD30072FFD378
:100690000076FFD3007AFFD35CB90120C0C10120EE
:1006A0001C8901201CA901201C0100201E01002022
:1006B000200100202201002024010020260100202A
:1006C00028010020490100204A010020F9000020F3
:1006D00064CB01200D0100205CC10120C0C90120B4
:1006E000E0000020E4000020350200203602002057
:1006F00037020020380200203A0200203C0200208D
:10070000F0B50246072900DDF0BD042902DA0E1D0E
:10071000F1B202E0C1F10706F1B2C2F30743C2F33E
:100720000725D4B200203CE0460005FA06F606F0A4
:10073000800646B1C0260C2707FB0107DFF8A4C1DD
:100740000CF8076007E080260C2707FB0107DFF89D
:1007500094C10CF807604600761C05FA06F606F010
:10076000800676B10C2606FB01065E4FBE5D46F0A4
:100770000C060C2707FB0107DFF868C10CF80760BF
:100780000DE00C2606FB0106564FBE5D46F008063E
:100790000C2707FB0107DFF84CC10CF80760461C6B
:1007A000F0B20428C0DB002046E0460003FA06F65B
:1007B00006F0800656B1C027061D4FF00C0C0CFB4E
:1007C0000166DFF820C10CF8067009E08027061DDD
:1007D0004FF00C0C0CFB0166DFF808C10CF806703A
:1007E0004600761C03FA06F606F080068EB1061D5A
:1007F0000C2707FB01663B4FBE5D46F00C07061D4C
:100800004FF00C0C0CFB0166DFF8D8C00CF806703A
:1008100010E0061D0C2707FB0166324FBE5D46F057
:100820000807061D4FF00C0C0CFB0166DFF8B4C086
:100830000CF80670461CF0B20428B6DB00204CE031
:10084000460004FA06F606F080065EB1C02700F105
:1008500008064FF00C0C0CFB0166DFF888C00CF8A2
:1008600006700AE0802700F108064FF00C0C0CFB24
:100870000166DFF870C00CF806704600761C04FABA
:1008800006F606F080069EB100F108060C2707FB6D
:100890000166144FBE5D46F00C0700F108064FF0EC
:1008A0000C0C0CFB0166DFF83CC00CF8067012E083
:1008B00000F108060C2707FB01660A4FBE5D46F0F3
:1008C000080700F108064FF00C0C0CFB0166DFF87E
:1008D00014C00CF80670461CF0B20428B0DB00BF50
:1008E00012E7000051020020014659B9002005E03E
:1008F0000B4A125C0B4B1A54421C90B2B0F5806F3D
:10090000F6DB0CE001290AD1002005E0064A135C61
:10091000064A1354421C90B2B0F5806FF6DB704764
:10092000A81B0108B4CC0120A81F0108B4D00120E5
:1009300010B500224FF48071264802F0FDF8022322
:100940001A462549254804F011F8012211022148D0
:1009500002F0F2F8012001F036FF00224FF480711E
:100960001C4802F0E9F802231A461B49891C1B485F
:1009700003F0FCFF01221102164802F0DDF801200D
:1009800001F021FF00224FF48071124802F0D4F8E8
:1009900002231A461049091D104803F0E7FF0122FF
:1009A00011020C4802F0C8F8012001F00CFF0022EF
:1009B0004FF48071074802F0BFF802231A46064937
:1009C000891D064803F0D2FF01221102014802F0FE
:1009D000B3F810BD001402400A030020BC07002039
:1009E0002DE9F04F8DB0F5A1FD480BF035FD372313
:1009F0002222FB49FB4804F022FE0122FA49FB486F
:100A00000DF096F8FA4908700846007820B14FF6C4
:100A1000FE700DB0BDE8F08FF648D0F80CB0F6A02F
:100A200000680C900024002700200B900026002571
:100A300000BF11E0372096FBF0F000EBC001C1EBE6
:100A40008010EE490844372196FBF1F201FB126158
:100A500000224254701C86B2B6F5DC4FEADB002659
:100A600010E00020E64941F82600E64921F816008A
:100A7000E54921F81600E54921F81600E4498855B2
:100A8000701C86B2B6F5007FEBDB002606E0FF2186
:100A900006F58050DF4A1154701C86B2B6F5806F9F
:100AA000F5DB0026DC4B4FF48052DA49CF480DF0DD
:100AB00055F9CF4908700846007808B10020A8E72A
:100AC0001C24E4E1D348005DE8BBD249601C085C0B
:100AD000C8BBA01C085CB0BBE01C085C98BB04F160
:100AE0000800095CCB4A401C105C4FF4807212FB7A
:100AF0000011C84A04F10A00105C4FF4803202FB76
:100B00000011C44A04F10B00105C4FF0807202FB2C
:100B1000001AC04904F10C00095CBE4A401C105C7C
:100B20004FF4807212FB0011BA4A04F10E00105CFF
:100B30004FF4803202FB0011B64A04F10F00105C42
:100B40004FF0807200E00EE002FB00100A90B3A1AB
:100B5000A3480A9A0BF080FC37230E22A049A14833
:100B600004F06DFD92E1AB48005D05284ED1A94926
:100B7000601C085CF0BBA01C085CD8BBE01C085CD7
:100B8000C0BB04F10800095CA24A401C105C4FF491
:100B9000807212FB00119F4A04F10A00105C4FF4AE
:100BA000803202FB00119B4A04F10B00105C4FF0F5
:100BB000807202FB00100990964904F10C00095C58
:100BC000944A401C105C4FF4807212FB0011914A51
:100BD00004F10E00105C4FF4803202FB00118D4ACC
:100BE00004F10F00105C4FF0807202FB00100890BF
:100BF0008DA100E00AE07A48089A0BF02DFC37231B
:100C00000E227749774804F01AFD3FE18148005DE4
:100C100007284ED17F49601C085CE8BBA01C085C1B
:100C2000D0BBE01C085CB8BB04F10800095C794A41
:100C3000401C105C4FF4807212FB0011754A04F1E5
:100C40000A00105C4FF4803202FB0011714A04F17B
:100C50000B00105C4FF0807202FB001007906D4992
:100C600004F10C00095C6B4A401C105C4FF480726C
:100C700012FB0011674A04F10E00105C4FF4803241
:100C800002FB0011634A04F10F00105C4FF0807208
:100C900002FB0010069000E00BE066A15048069AA7
:100CA0000BF0DAFB37230E224D494E4804F0C7FC07
:100CB000ECE05848005D08284ED15649601C085C9D
:100CC000F0BBA01C085CD8BBE01C085CC0BB04F1F6
:100CD0000800095C4F4A401C105C4FF4807212FB04
:100CE00000114C4A04F10A00105C4FF4803202FB00
:100CF0000011484A04F10B00105C4FF0807202FBB7
:100D000000100590434904F10C00095C414A401C65
:100D1000105C4FF4807212FB00113E4A04F10E0089
:100D2000105C4FF4803202FB00113A4A04F10F00CC
:100D3000105C4FF0807202FB0010049040A100E0B4
:100D40000AE02748049A0BF087FB37230E22244938
:100D5000244804F074FC99E02E48005D13282CD13F
:100D60002C49601C085C40BBA01C085C28BBE01C34
:100D7000085C10BB04F10800095C264A401C105CAA
:100D80004FF4807212FB0011224A04F10A00105C39
:100D90004FF4803202FB00111E4A04F10B00105C7C
:100DA0004FF0807202FB001003901A4904F10C000E
:100DB000095C184A401C105C48E067E0537461729B
:100DC000742052656B6F7264626F78207061727309
:100DD0006572207665722E20302E34310A0D0000A7
:100DE000A6CB01207408002029010020F80800206B
:100DF000D5000020F81800202E4441540000FFD3F5
:100E00005CB90120006EFFD30072FFD30076FFD3E0
:100E1000007AFFD38C290020D80000204C503020CD
:100E20002530386C750A0D004C5035202530386C53
:100E3000750A0D004C5037202530386C750A0D00AE
:100E40004C5038202530386C750A0D004FF48072F4
:100E500012FB0011FE4A04F10E00105C4FF48032C8
:100E600002FB0011FA4A04F10F00105C4FF080728F
:100E700002FB00100290F7A1FA48029A0BF0ECFA7C
:100E800037230F22F749F84804F0D9FB1034F04813
:100E9000007AEF49497A4FF4807212FB0100EC4965
:100EA000897A120202FB0100E949C97A120202FBA7
:100EB000010000011C30A0423FF604AE00244FEABE
:100EC0000A31EA480CF0D2FB74E1E94B4FF480524E
:100ED000DF49E6480CF042FFE64908700846007812
:100EE00008B1002095E50024D046D948007BD849B8
:100EF000497B4FF4807212FB0100D549897B1202B5
:100F000002FB0100D249C97B120202FB010A5246D0
:100F1000D9A1D4480BF0A0FA37230E22D149D248E8
:100F200004F08DFBCA48007A00287DD1C848407A79
:100F30000028FAD1C648807A0028F6D1C448C07A81
:100F40000028F2D1C248C07E00F040000028ECD159
:100F5000BF4890F824000028E7D1BD4890F825004C
:100F60000028E2D11CE1BA48005D24287ED1B849AE
:100F7000601C085C0028F9D104F10800085C4428D2
:100F8000F4D104F10900085CAC28EFD104F1300081
:100F9000085C8328EAD104F13100085C0528E5D11A
:100FA00004F15200085C1028E0D104F14800095C0B
:100FB000A74A401C105C4FF4807212FB001086B2EE
:100FC000B6F5007F05DDA9480CF0A2FA4FF6FF70D8
:100FD0001FE5701E400000F580509D49085CFF2809
:100FE0000DD1701E41F20101022202FB001098494E
:100FF000085CFF2803D10B98401C80B20B909449E9
:1010000004F14800095C701E400000F58050904AD1
:101010001154114604F14900095C701E41F20102AD
:10102000022303FB002000E0BFE0894A1154203472
:101030001046015D701E934A115418348448015DB6
:101040000246601C105CDA0112FB0011804AA01CF1
:10105000105C4FF6FF7202FB00170A20B7FBF0F797
:10106000701E894A22F810701C3400E097E078481E
:10107000015D0246601C105CDA0112FB001081B2B7
:10108000701E824A22F81010241D7148015D02462C
:10109000601C105CDA0112FB001081B2701E7C4AE9
:1010A00022F81010241D4FF0010971E06848005D1E
:1010B0009DF8311088426AD1601E6549085C9DF830
:1010C0003010884263D16249601C085C9DF8321080
:1010D00088425CD15E49A01C085C9DF833108842B0
:1010E00055D14FF4805000FB0841701E694A42F808
:1010F0002010103400251FE060195549085C202895
:1011000003DB6019085C7E2809DD2021701E00EBDE
:10111000C002C2EB8010604A104441550AE06019D9
:101120004B49095C701E00EBC002C2EB80105A4AAA
:1011300010444155681C85B2362D04DA60194449C3
:10114000085C0328D8D10AE00021701E00EBC00221
:10115000C2EB8010504A10444155681C85B2362DB0
:10116000F2DB0021701E00EBC002C2EB80104A4A85
:10117000104480F83510701E00EBC002C2EB8010E6
:10118000454A104480F8361000250A348946641C0C
:1011900040F6FF70844202D2B9F1000F86D1641C80
:1011A00040F6FF708442FFF4DEAE4FEA0A312F486A
:1011B0000CF05CFABAEB1B3F03D20A985045BFF41F
:1011C00084AE0998010329480CF050FA4FF0010948
:1011D00007E1DDE90801884201D14FF00009244B05
:1011E0004FF480521A4921480CF0B8FD214908708B
:1011F0000846007808B100200BE400241448007B66
:101200001349497B4FF4807212FB01001049897B1E
:10121000120202FB01000E49C97B120202FB01000F
:1012200009900B48007A05287ED10948407A0028A9
:101230007AD10748807A002876D10548C07A0028FC
:1012400072D10348C07E00F0400000286CD125E038
:101250008C2900204C503139202530386C750A0D0E
:1012600000000000A6CB012074080020F808002030
:10127000D8000020D50000204E5030202530386C9A
:10128000750A0D00007AFFD3006EFFD30076FFD3FE
:101290000072FFD35CB901200000FFD3FE4890F834
:1012A0002400002840D1FC4890F8250000283BD1BC
:1012B000F948007EC0B3F84890F81880282487E0E9
:1012C000F54904F10900095CF348005D401EF34A4A
:1012D00002F82010F04904F10A00095CEE48005DB4
:1012E000401E02EB80004170EB4904F10B00095CE9
:1012F000E948005D401E02EB80008170E64904F180
:101300000C00095CE448005D401E02EB8000C170E7
:10131000E148005D401E114601EB8000C0782128A5
:1013200009DBDD48005D00E056E0401E01EB800077
:10133000C0787D2807DD0021D748005D401ED74AD0
:1013400002EB8000C170D44904F10800085C052854
:1013500009D10021D048005D401ED04A02EB800038
:1013600041700C3432E0CC4904F10800085C0728D5
:1013700009D10021C848005D401EC84A02EB800028
:1013800081700C3422E0C44904F10800085C09288B
:1013900009D10021C048005D401EC04A02EB800018
:1013A000C1700C3412E0BC4B04F108029A5C511E6F
:1013B00001EBD1725210501EC21700EB92729310C3
:1013C00004F10C024FF0040C1CFB0324A8F10108EB
:1013D000B8F1000F7FF474AF09980103B0480CF026
:1013E00045F90998B0EB1B3F03D2B9F1000F7FF428
:1013F000F0AE07980103AA480CF038F94FF0010944
:10140000002506E0002105F50050A34A1154681C90
:1014100085B241F268008542F4DB9FE0DDE9060118
:10142000884201D14FF000099E4B4FF480529A49F7
:101430009B480CF093FC9C4908700846007808B162
:1014400000204FE500249448007B9349497B4FF4EA
:10145000807212FB01009049897B120202FB01009D
:101460008D49C97B120202FB010007908A48007A6D
:1014700007286ED18848407AC0BB8748807AA8BBCD
:101480008548C07A90BB8448C07E00F0400068BBAD
:10149000814890F8240048BB7F4890F8250028BB7D
:1014A0007D48007E10B37C4890F81880282408F10D
:1014B00001084BE0784A04F11401515C481E00EB2E
:1014C000D07149104F1E114604F11000085CA8BBF2
:1014D00004F11100085C88BB04F11200085C68BBD1
:1014E00004F11300085C48BB002514E031E004F16E
:1014F000150028446849095C674A04F10C00105C37
:10150000401EC0EBC00000EB400000F50050284436
:101510001154681C85B2BD4201D2142DE7DB5E492F
:1015200004F10C00095C5C4A105C401EC0EBC0007A
:1015300000EB400000F5005014301154B90804F1DC
:101540001800042202FB0104A8F10108B8F1000F01
:10155000B0D10798010352480CF088F80698B0EB18
:101560001B3F03D2B9F1000F7FF458AF00204F4961
:101570000870019001273AE0002528E042F21400AB
:10158000152101FB05004449085CB8421DD100202B
:10159000009015E0009800F50050152101FB0500B2
:1015A0003D49095C41480078C0EBC00000EB4000B9
:1015B0003F4A0244009811540098401CC0B2009069
:1015C00000981528E6DB01200190681C85B2C82D23
:1015D000D4DB019850B135480078142804DA334838
:1015E0000078401C31490870002001907F1CFF2FBB
:1015F000C2D3059801032A480CF038F84FF00109CE
:10160000002506E0FF2105F50050234A1154681C0F
:1016100085B2B5F5A04FF5DB98E0DDE9040188421D
:1016200001D14FF000091F4B4FF480521A491C485A
:101630000CF094FB1C4908700846007808B10020A3
:1016400050E400241448007B1349497B4FF4807216
:1016500012FB01001049897B120202FB01000E49B6
:10166000C97B120202FB010005900B48007A082892
:1016700067D10948407AA8BB0748807A90BB0648E2
:10168000C07A78BB0448C07E00F0400050BB0248DE
:1016900090F8240030BB0DE08C2900205CC10120B3
:1016A000F8080020D8000020D500002049010020C3
:1016B000C0C90120B14890F8250098B9AF48007E14
:1016C00010B9AE48407E68B1AC4890F82200AB49F2
:1016D00091F823104FF4807212FB0108282408F1BE
:1016E00001082BE02DE0A54A04F10801505C06F04A
:1016F000A7FF0546142D02D14FF6F17068E49F480C
:10170000015D0246601C105C4FF4807212FB0010F9
:10171000401E400000EB852086B29849201D095CE0
:1017200006F50050954A11541146601D085C42F2BE
:101730000101314450540C34A8F10108B8F1000FF4
:10174000D1D1059801038E480BF090FF0498B0EBBF
:101750001B3F03D2B9F1000F7FF45FAF002089492E
:1017600008800024002541E00020C5EBC50101EB05
:101770004101854A114408754FF0010900272DE009
:10178000780000EB852086B206F500507B49085CA6
:1017900042F201013144794A515C4FF4807212FBEC
:1017A00001004FF6FF71884202D14FF0000914E0AA
:1017B00006F500507149085C42F2010131446F4A5C
:1017C000515C4FF4807212FB01006E4931F8151024
:1017D00039446E4A22F81100641C7F1CB7F5007F63
:1017E000CED3684A681C22F8104085B26848007859
:1017F0008542B9DB0398010361480BF037FF4FF0D6
:101800000109AEE0DDE90201884201D14FF0000993
:10181000604B4FF48052594959480CF09FFA5E4989
:1018200008700846007808B10020E5E40024534819
:10183000007B5249497B4FF4807212FB01004F49F3
:10184000897B120202FB01004C49C97B120202FB98
:10185000010003904948007A13287DD14748407A17
:1018600088BB4648807A70BB4448C07A58BB43481E
:10187000C07E00F0400030BB404890F8240010BB10
:101880003E4890F82500F0B93C48007ED8B13B486E
:1018900090F8188028245CE03848005D802856D1F4
:1018A0003649601C085C022851D127460C34084692
:1018B000005D401E86B2304606EBD0714E10701EA1
:1018C00086B2002508E047E06019401C2B49085CFF
:1018D00032494855681C85B2B54201DA0D2DF3DB5B
:1018E00000202E494855A019C41C2448005D401E04
:1018F00086B2304606EBD0714E10701E86B2A0192B
:10190000441C1E48005D401E86B2304606EBD07176
:101910004E10701E86B2002507E06019401C174962
:10192000085C1F494855681C85B2B54201DA122D82
:10193000F3DB00201A494855A019841DE01B00F074
:101940000300C0F104073C44A8F1010801E04FF096
:101950000008B8F1000F9FD10398010308480BF06D
:1019600085FE0398B0EB1B3F03D2B9F1000F7FF463
:1019700049AF03480BF0CCFD0B983DE48C290020C7
:10198000F808002064CB0120C0C90120C0C101209B
:1019900049010020D8000020D50000200D010020C2
:1019A000F900002010B5024800F024FD10BD000031
:1019B000140800200146087810381823B0FBF3F211
:1019C0000848805CC865032A05D908686FF30900D8
:1019D000001D886503E008686FF309008865886D5D
:1019E00070470000E0130108014600208A6A8B69F5
:1019F000CBB932B1012A0DD0022A03D0032A10D16B
:101A00000EE000BFCB6A03F08073B3F1807F00D19A
:101A1000012007E0CB6AB3F1C07F00D1012001E0D3
:101A200000E000BF34E08B69B3F5005F1AD132B13A
:101A3000012A07D0022A03D0032A11D10AE000BFED
:101A400001200EE0CB6A03F08073B3F1807F00D1F8
:101A5000012006E0CB6AB3F1C07F00D1012000E095
:101A600000BF15E032B1012A05D0022A04D0032AB2
:101A70000CD103E000BF00BF012008E0CB6A03F0F7
:101A80008073B3F1807F00D1012000E000BF00BF70
:101A9000704730B50468246824F4802405682C60FD
:101AA000046863608468402C04D10468A260046800
:101AB000E16003E00468A1600468E26030BD704743
:101AC00038B504460D46012056490870DDB900209E
:101AD0002B237F221946009006F0E6FA00202C23E3
:101AE0007F221946009006F0DFFA00202D237F2286
:101AF0001946009006F0D8FA4B48007840F02000D4
:101B00004949087038BD7D2C7EDA002C6AD0012D41
:101B100034D1611CC8B201222B2106F057FB611C95
:101B2000C8B201222C2106F051FB611CC8B201226F
:101B30002D2106F04BFB611EC8B201222B2106F0BD
:101B400045FB01222B21204606F040FBA11CC8B218
:101B500001222B2106F03AFBE11CC8B201222B2105
:101B600006F034FB01222C21204606F02FFBA11C9D
:101B7000C8B201222C2106F029FB4AE0611CC8B240
:101B800001222B2106F022FB611CC8B200222C216D
:101B900006F01CFB611CC8B201222D2106F016FBC9
:101BA00001222B21204606F011FB01222C21204688
:101BB00006F00CFB01222D21204606F007FBA11C9C
:101BC000C8B201222B2106F001FBA11CC8B20122E0
:101BD0002C2106F0FBFAA11CC8B201222D2106F02F
:101BE000F5FA16E000202B237F221946009006F01C
:101BF0005BFA00202C237F221946009006F054FA4D
:101C000000202D237F2200E00AE01946009006F014
:101C10004BFA0548007840F020000349087071E74E
:101C200000BF6FE724030020F7000020F8B5012073
:101C30001649087000203F237F221946009006F0C5
:101C400033FA13480068D0B1114800681149B1FB5C
:101C5000F0F60F48006842F22831B0FBF1F40BE0D7
:101C600004FB06F52D097C2D05D2A91CC8B2012262
:101C70003F2106F0ABFA641E002CF1D100BF0648EC
:101C8000007840F0800004490870F8BD240300206B
:101C9000B400002000761001F700002010B50120EC
:101CA00017490870002421E0022101EB4401C8B269
:101CB00001223C2106F08AFA022101EB4401C8B25C
:101CC00001223D2106F082FA032101EB4401C8B252
:101CD00000223C2106F07AFA032101EB4401C8B24C
:101CE00000223D2106F072FA601CC4B23E2CDBDB00
:101CF0000448007840F080000249087010BD0000E0
:101D000024030020F700002010B54FF08040406A07
:101D10001249086000204FF0804148620F48006877
:101D2000642816D90E480068800800EB40000B4973
:101D3000096800EB91000A4908600A48006800F44D
:101D4000005018B901200849087002E00020064937
:101D50000870012000F0CCFD10BD00000C02002036
:101D600010020020100C02400A02002010B500F002
:101D7000E9FE224908600846006821490968401ABE
:101D8000204908602048006900F00800C8B90846EA
:101D900000680C2802D91D48007838B1194800683D
:101DA000642826D919480078012822D113480068F0
:101DB0001349086001201649087000201349087073
:101DC00017E0104800680C2803D910480078012853
:101DD00006D00C48006864280BD90C48007840B93C
:101DE000064800680649086001200A49087007494A
:101DF0000870042000F07CFD10BD0000E40200200B
:101E0000D8020020E002002000100240D50200208D
:101E1000DD020020DC02002030B504460D46002221
:101E20002946204600F002F830BD0000F0B5034618
:101E3000012500241148407A01281CDC00200F4EA7
:101E4000767A0E4FB8553846467A001D40F826304F
:101E5000001F467A083082553E46707A461C7E72D4
:101E6000044604F1300008703A2048702F20887032
:101E70000020C87000252846F0BD00005005002055
:101E800030B50246002300240868012816D01368E4
:101E90006FF30E03D1E901052843CD6828430D698E
:101EA00028434D6928438D692843CD6928430D6A2D
:101EB00028434D6A28430343136019E0136823F451
:101EC000F843D1E9070528434D6A28430343546882
:101ED0006FF30E04D1E901052843CD6828430D694D
:101EE00028434D6928438D69284304431360546097
:101EF000002030BD0246506940EA41005061002098
:101F00007047F8B506460C4615460020009000279D
:101F1000D4E900010843A168491E40EA4110E16884
:101F200040EA412000900098306100F00BFE074627
:101F300009E0681C38B125B100F004FEC01BA842BE
:101F400001D90320F8BDB06900F020000028F0D1CD
:101F500000BFF7E770B50346154600220024012DA7
:101F60001FD09A6802F070420868401E4E68761EC4
:101F700040EA06168868401E46EA0026C868401EE9
:101F800046EA0036088A401E46EA0046888A401E15
:101F900046EA0056087E401E46EA006002439A6008
:101FA00022E09A6811480240C868401E0603888AE9
:101FB000401E46EA00500243DC6804F070440868A2
:101FC000401E4E68761E40EA06168868401E46EAA5
:101FD0000026088A401E46EA0046087E401E46EA61
:101FE000006004439A60DC60002070BDFF0F0FFFAB
:101FF0001CB501AA69461BA00BF0A3FA019800F5D5
:1020000080504069801E019901F5805189784843CC
:102010001549086008460068C00A0860084600685C
:102020001249884202D908460F490860019800F514
:1020300080508078009948430D4908600846006840
:10204000C00A0860084600680849884202D9084664
:10205000074908600448006805490968401A0249B0
:1020600008601CBD303A0000E40000209F8601009B
:10207000E000002038B502460020009000BF92F832
:102080003C00012801D1022038BD012082F83C002B
:1020900000BF0868092816D91068C0680C780A3C87
:1020A00004EB44050724AC40A0431468E0600C78BE
:1020B0000A3C04EB44048868A0401468E4682043A8
:1020C0001468E06013E0106800690C7804EB4405C4
:1020D0000724AC40A043146820610C7804EB44044E
:1020E0008868A04014682469204314682061486807
:1020F000072817D21068406B0C79641E04EB840526
:102100001F24AC40A04314686063088880B20C7937
:10211000641E04EB8404A0401468646B20431468BC
:10212000606331E048680D2817D21068006B0C79A5
:10213000E41F04EB84051F24AC40A0431468206313
:10214000088880B20C79E41F04EB8404A040146872
:10215000246B20431468206316E01068C06A0C7971
:102160000D3C04EB84051F24AC40A0431468E062DE
:10217000088880B20C790D3C04EB8404A0401468FC
:10218000E46A20431468E0621A4B1B4C1068A042BA
:1021900006D10868122803D1586840F480005860BE
:1021A000154C1068A0421ED1144C0868A04202D001
:1021B0000868112817D1586840F4000058600F4C87
:1021C0000868A0420FD10E4800680E4CB0FBF4F036
:1021D00000EB80004000009002E00098401E00905C
:1021E00000980028F9D100BF002082F83C0000BF11
:1021F00000BF49E700230140002001401200001009
:102200002C03002040420F0001460868C06C704754
:1022100070B5044600250CB9012070BD1549A06AAF
:10222000884200D000BF206C30B90020606484F880
:102230003C00204600F020F8206C00F0100088B927
:10224000206C20F4885040F0020020642046FEF705
:1022500031F800206064206C20F0020040F00100A2
:10226000206400E0012500BF002084F83C0000BF8E
:102270002846D2E70100000F10B586B00446104989
:102280002068884219D100BF002000900D480068E6
:1022900040F480700B4908600846006800F48070C4
:1022A000009000BF00BF1F2001900320029000207B
:1022B000039001A9044800F029FB06B010BD0000FE
:1022C00000200140443802400000024008B50146A9
:1022D0000020009000BF91F83C00012801D10220AD
:1022E00008BD012081F83C0000BF0868806800F04C
:1022F0000100A0B90868806840F001000B68986090
:102300002E4800682E4BB0FBF3F000EB400000902D
:1023100002E00098401E009000980028F9D108685B
:10232000806800F00100002845D0086C40F201638D
:10233000984340F4807008640868406800F4806046
:1023400028B1086C20F4005040F480500864086CF8
:1023500000F4805020B1486C20F00600486401E091
:102360000020486400BF002081F83C0000BF154AEF
:102370006FF022000B681860506800F01F0058B919
:102380000868806800F04050A8B90868806840F08C
:1023900080400B6898600EE00B4B086898420AD1A9
:1023A0000868806800F0405028B90868806840F0EC
:1023B00080400B689860002092E700002C0300200A
:1023C00040420F000023014000200140014691F8E7
:1023D0003500022803D08020486501207047052081
:1023E00081F835000868006820F001000A68106074
:1023F0000020F3E7F8B50446002000908D480068FF
:102400004FF41651B0FBF1F7A56D2E6894F85C10EF
:1024100008208840304098B12068006800F004002F
:1024200070B12068006820F004002168086094F80A
:102430005C1008208840A860606D40F00100606575
:1024400094F85C107C488840304068B1206840694E
:1024500000F0800040B194F85C1077488840A86094
:10246000606D40F00200606594F85C107248C01C1A
:102470008840304070B12068006800F0020048B128
:1024800094F85C106C48C01C8840A860606D40F0F7
:102490000400606594F85C1010208840304078B3E8
:1024A0002068006800F0080050B394F85C10102019
:1024B0008840A8602068006800F4802080B120680F
:1024C000006800F4002028B9206CC8B12046216CB7
:1024D000884715E0A06C98B12046A16C88470FE0B2
:1024E0002068006800F4807028B92068006820F037
:1024F000080021680860206C10B12046216C8847D4
:1025000094F85C10202088403040002865D0206876
:10251000006800F0100000285FD094F85C102020C4
:102520008840A86094F83500052828D12068006804
:1025300020F01600216808602068406920F08000C3
:1025400021684861206C08B9A06C28B12068006837
:1025500020F008002168086094F85C103F20884053
:10256000A86000BF002084F8340000BF012084F878
:102570003500206D10B12046216D8847F8BD2068D8
:10258000006800F4802080B12068006800F400201A
:1025900028B9606C10B12046616C88471DE0E06B83
:1025A000D8B12046E16B884717E02068006800F446
:1025B000807068B92068006820F010002168086009
:1025C00000BF002084F8340000BF012084F83500EB
:1025D000E06B10B12046E16B8847606D38B3606DE9
:1025E00000F00100F0B1052084F835002068006893
:1025F00020F001002168086000BF0098401C009096
:10260000B84200D905E02068006800F00100002809
:10261000F3D100BF00BF002084F8340000BF0120C8
:1026200084F83500E06C10B12046E16C884700BFAB
:10263000A4E700002C030020010080002DE9F041F8
:102640000446002500F07EFA074614B90120BDE8D3
:10265000F081606A00B100BF00BF002084F8340040
:1026600000BF022084F835002068006820F00100D7
:10267000216808600AE000F065FAC01B052805D94A
:1026800020206065032084F83500E0E720680068BA
:1026900000F001000028EED12068056821480540BF
:1026A000D4E901010843E1680843216908436169ED
:1026B0000843A1690843E1690843216A08430543C7
:1026C000606A042803D1D4E90B010843054320685C
:1026D00005602068456925F00705606A0543606A62
:1026E00004280DD1A06A0543E06A48B12046FFF7EF
:1026F0007BF928B140206065012084F83500A6E709
:10270000206845612046FFF755F9064694F85C10AD
:102710003F208840B06000206065012084F83500CB
:10272000002094E73F8010F02DE9F04704460D4665
:1027300016461F464FF00008D4F8589000BF94F892
:102740003400012802D10220BDE8F087012084F87E
:10275000340000BF94F8350001282BD1022084F802
:102760003500002060653B46324629462046FFF78B
:1027700090F994F85C103F208840C9F80800206860
:10278000006840F01600216808602068406940F049
:10279000800021684861206C28B12068006840F002
:1027A0000800216808602068006840F00100216886
:1027B000086006E000BF002084F8340000BF4FF03E
:1027C00002084046C0E731B500F0BCF90546009C60
:1027D000601C00B1641C00BF00F0B4F9401BA042B3
:1027E000FAD338BD00B587B03848006808B107B0E3
:1027F00000BD01203549086000BF00200190344829
:10280000006840F00100324908600846006800F0A6
:102810000100019000BF00BF4FF63F000290022070
:10282000039000200490032005900C20069002A93C
:10283000284800F06BF8012002900220039000204D
:102840000490032005900C20069002A9224800F075
:102850005DF848F2371002900220039000200490A7
:10286000032005900C20069002A91C4800F04EF8A9
:102870004FF6837002900220039000200490032002
:1028800005900C20069002A9154800F03FF84CF284
:102890000370029002200390002004900320059012
:1028A0000C20069002A90F4800F030F8602002903A
:1028B0000220039000200490032005900C20069035
:1028C00002A9094800F022F800BF90E71400002098
:1028D000383802400014024000080240001802404C
:1028E00000100240000C024000040240704700004B
:1028F00010B5044604480068204020B10248046036
:102900002046FFF7F3FF10BD143C0140F8B5024626
:102910000B460025002400200021E6E0012606FAEF
:1029200001F51E6806EA0504AC4273D15E68022E0A
:1029300002D05E68122E13D1CF0802F1200656F89D
:1029400027004E07F70E0F26BE40B0434F07FF0E7D
:102950001E69BE403043CF0802F1200646F827002A
:1029600010684F000326BE40B0431E7906F00306F0
:102970004F00BE40304310605E68012E08D05E6894
:10298000022E05D05E68112E02D05E68122E13D181
:1029900090684F000326BE40B0434F00DE68BE4043
:1029A00030439060506801268E40B0431E79C6F3D4
:1029B00000168E4030435060D0684F000326BE4062
:1029C000B0434F009E68BE403043D0605E6806F062
:1029D0008056B6F1805FA8D100BF00260096454E14
:1029E000366846F48046434F3E603E46366806F4FD
:1029F0008046009600BF00BF3F4E8F0856F8270064
:102A00008E07370F0F26BE40B0433C4EB24202D174
:102A100000262EE068E03A4EB24201D1012628E0BD
:102A2000384EB24201D1022623E0374EB24201D1E4
:102A300003261EE0354EB24201D1042619E0344E81
:102A4000B24201D1052614E0324EB24201D106262F
:102A50000FE0314EB24201D107260AE02F4EB242BA
:102A600001D1082605E02E4EB24201D1092600E030
:102A70000A268F073F0FBE4030431F4E8F0846F88F
:102A80002700284E3068A0435E6806F48036B6F50D
:102A9000803F00D12043234E3060361D3068A04374
:102AA0005E6806F40036B6F5003F00D120431D4EA7
:102AB000361D3060361D3068A0435E6806F480160F
:102AC000B6F5801F00D12043164E08363060361D03
:102AD0003068A0435E6806F40016B6F5001F00D10A
:102AE0002043104E0C363060491C1029FFF416AFFD
:102AF000F8BD0000443802400838014000000240A0
:102B00000004024000080240000C02400010024095
:102B10000014024000180240001C02400020024045
:102B200000240240003C0140024613690B400BB1F7
:102B3000012000E0002070470AB1816101E00B0430
:102B40008361704701480068704700000000002062
:102B50003EB504462068806802909E4920688842FD
:102B600001D19D4801E04FF040208068019020682D
:102B7000C06900F44070B0F5007F05D02068C069DE
:102B800000F4407000287AD1029800F00200022878
:102B900008D120684068C0F3C01018B10021204659
:102BA00002F012FE019800F0010078B18949206816
:102BB000884201D1884801E04FF040204068C0F3CE
:102BC000801018B10121204602F0A8FD019800F004
:102BD000400040283BD17F492068884201D17E488F
:102BE00001E04FF040204068C0F3401078B37949CD
:102BF0002068884201D1784801E04FF040204068C9
:102C000020F06000734A2168914201D1724901E0CD
:102C10004FF040214860206840684FF65F710840DF
:102C20002168486000BF002000902068C0680090C4
:102C300020688068009000BF00BF012084F8410038
:102C4000606C40F002006064204600F0C8F8029812
:102C500000F00800082833D120684068C0F3401015
:102C600000282DD0206840684FF65F710840216829
:102C7000486058492068884202D1574802E020E065
:102C80004FF04020406820F06000524A2168914295
:102C900001D1514901E04FF04021486000BF0020C0
:102CA000009020688068009000BF00BF012084F879
:102CB0004100606C40F004006064204600F08FF832
:102CC00086E0019800F0020002280FD141492068F7
:102CD000884201D1404801E04FF040204068C0F3F5
:102CE000C01018B10121204602F06EFD029800F0DC
:102CF000010040B120684068C0F3801018B1002185
:102D0000204602F00BFD029800F04000402829D137
:102D100020684068C0F3401020B3206840684FF638
:102D20009F710840216848602A492068884201D183
:102D3000294801E04FF04020406820F0A000254ADB
:102D40002168914201D1244901E04FF040214860BF
:102D5000012084F84100606C40F00200606420466D
:102D600000F03DF8019800F00800082830D119491A
:102D70002068884201D1184801E04FF040204068A7
:102D8000C0F3401020B313492068884201D1124893
:102D900001E04FF04020406820F0A0000D4A21687B
:102DA000914201D10C4901E04FF040214860206878
:102DB00040684FF69F71084021684860012084F800
:102DC0004100606C40F004006064204600F007F8A9
:102DD0003EBD00000038004000340040704770479E
:102DE00010B504462046616B884710BD2DE9F047B9
:102DF000044600264FF00208B14610270025AA46D7
:102E000014B90120BDE8F087022084F8410064482D
:102E10006063204600F0CCF82068C06940F6BF71BE
:102E200088432168C8610220216808622068C66959
:102E3000606902283CD0E06808B1202700E0102734
:102E4000A068202800D87F00012000F077FA824691
:102E50002069B0F5007F17D1E06850B1B800BAFB27
:102E6000F0F000EB800041006069B1FBF0F0451D1F
:102E700013E0F800BAFBF0F000EB8000410060695D
:102E8000B1FBF0F0451D08E0BAFBF7F000EB800065
:102E900041006069B1FBF0F0451D0A20B5FBF0F57B
:102EA00005F00109A5EB0900C0F34F084FEA092915
:102EB000B8F1020F02D3B8F1FF0F0CD94FF002089E
:102EC0004FF00009606C40F0100060642046FFF78E
:102ED00086FF012096E7206940EA090040EA0800E1
:102EE00021680862A089218B084321890843A188B1
:102EF000084380B240F4006006432068C661206A3F
:102F0000012846D12748606327492068884201D1BB
:102F1000264801E04FF04020C06940F6BF71884369
:102F2000214A2168914201D1204901E04FF040211E
:102F3000C86102201C4A2168914201D11B4901E06D
:102F40004FF04021086218492068884201D1174893
:102F500001E04FF04020C6696068B0F5007F01D005
:102F6000606810B94FF4807500E00025A089218BBE
:102F7000084321890843284380B240F40060064397
:102F800009492068884201D1084801E04FF04020FB
:102F9000C66100206064012084F84100002031E710
:102FA00071580008512B00080038004000340040E0
:102FB00010B586B004462949206888424CD100BF2C
:102FC000002000902648006840F400402449086032
:102FD0000846006800F40040009000BF00BF802059
:102FE000019002200290002003900490062005909A
:102FF00001A91C48FFF78AFC4FF400400190022011
:1030000002900020039004900620059001A9164824
:10301000FFF77CFC402001900220029000200390EA
:1030200004900520059001A91048FFF76FFC0820C7
:103030000190022002900020039004900620059049
:1030400001A90B48FFF762FC00221146332000F073
:10305000D1F8332000F0C1F806B010BD003C0040AC
:10306000403802400008024000000240000C0240CC
:1030700000040240704730B50346002493F8410035
:10308000012842D101B10AB9012030BD5962186846
:10309000C06900F00704032C01D0052C0AD14FF6BB
:1030A000FF7000EA420018854FF6FF7000EA420008
:1030B000588501E01A855A8500BF93F84000012821
:1030C00001D10220E1E7012083F8400000BF032086
:1030D00083F84100002058641868406840F0A00060
:1030E0001D6868601868C06900F48060B0F5806F82
:1030F00005D01868C06940F480601D68E86100BFB1
:10310000002083F8400000BFBFE70220BDE7704702
:1031100002480068401C0149086070470000002018
:1031200010B50D48006840F400700B49086008466F
:10313000006840F4806008600846006840F48070D1
:103140000860032000F094F8002000F007F800F079
:1031500019F8002010BD0000003C024070B5044684
:10316000074800684FF47A71B0FBF1F5284601F08A
:1031700056FD00222146501E00F03CF8002070BD94
:103180002C03002010B5032000F072F80022114635
:103190006FF00B0000F02EF8002211466FF00A00CD
:1031A00000F028F8002211466FF0090000F022F824
:1031B00000221146501F00F01DF800221146101F7A
:1031C00000F018F800221146901E00F013F80022BB
:1031D0001146501E00F00EF810BD00BF00F01F0297
:1031E000012191404209920002F1E022C2F800114F
:1031F00000BF70472DE9F05F80460D461646002758
:1032000004F036FE074639462A46334601F00700E9
:10321000C0F1070ABAF1040F02D94FF0040A01E025
:10322000C0F1070AD14600F1040ABAF1070F02D231
:103230004FF0000A01E0A0F1030AD4464FF0010A62
:103240000AFA09FAAAF1010A0AEA020A0AFA0CFAC7
:103250004FF0010B0BFA0CFBABF1010B0BEA030B6C
:103260004AEA0B042146404604F00AFEBDE8F09FFE
:1032700000BF00F00702064B19684FF6FF03194024
:10328000044B0B4343EA0221014B196000BF704716
:103290000CED00E00000FA0538B5002400BF002066
:1032A00000902348006840F080502149086008469B
:1032B000006800F08050009000BF00BF01200104B2
:1032C00091FAA1F1B1FA81F11A4A42F82100FFF70F
:1032D00039FC044607E0FFF735FC001BB0F57A7FA8
:1032E00001D9032038BD1448406800F48030B0F59F
:1032F000803FF0D10120410491FAA1F1B1FA81F1AE
:103300000C4A42F82100FFF71DFC044607E0FFF7D6
:1033100019FC001BB0F57A7F01D90320E2E70648CB
:10332000406800F40030B0F5003FF0D10020D9E74C
:103330004038024000000E420070004070B5014667
:103340000020002200230024012934D11B4D2D68C8
:1033500005F400031BB1012B29D1194829E0174DB1
:103360002D1F2D6805F48005B5F5800F08D1134D8C
:103370002D1F2D6805F03F05124EB6FBF5F207E054
:103380000E4D2D1F2D6805F03F050F4EB6FBF5F2D3
:103390000A4D7C352D68C5F3881505FB02F4074DF1
:1033A0007C352D68C5F30275B4FBF5F001E0002013
:1033B00000BF00BF00BF00BF70BD00000838024062
:1033C0000080BB0000127A000024F400F8B5044627
:1033D00000250026207800F0010020B9207800F0B8
:1033E0000200022866D10020CE498866FFF7AAFBBA
:1033F000054606E0FFF7A6FB401B022801D9032083
:10340000F8BDC9480068C0F3C0600028F2D1207838
:1034100000F0010098B147F6C07191FAA1F1B1FA3C
:1034200081F1606888404FF0E04292FAA2F2B2FA6D
:1034300082F2A16891400843BB498431086020783A
:1034400000F00200022821D1B7488430006800F063
:10345000E0404FF0E04191FAA1F1B1FA81F120FA98
:1034600001F660688101207B41EA006040EA067055
:10347000AD4984310860AC488C30006820F01F00F2
:10348000E169491E0843A8498C3108600120A5491B
:103490008866FFF757FB054606E0FFF753FB401B26
:1034A000022801D90320ABE79F480068C0F3C06041
:1034B0000028F2D0207800F00400042804D02078FE
:1034C00000F0080008287DD1002096490867FFF722
:1034D00039FB054606E0FFF735FB401B022801D902
:1034E00003208DE790480068C0F340700028F2D1B7
:1034F000207800F00400042834D18B48883000681C
:1035000000F0E0404FF0E04191FAA1F1B1FA81F111
:1035100020FA01F647F6C07191FAA1F1B1FA81F1F2
:10352000206988404FF0706292FAA2F2B2FA82F2F9
:103530006169914008434FF0E04191FAA1F1B1FA7D
:1035400081F106FA01F10843774988310860081DC6
:10355000006820F4F851206A401E41EA00207249B8
:103560008C310860207800F00800082834D16E48BB
:103570008830006800F070604FF0706191FAA1F13E
:10358000B1FA81F120FA01F647F6C07191FAA1F182
:10359000B1FA81F1206988404FF0706191FAA1F190
:1035A000B1FA81F106FA01F108434FF0E04292FAD4
:1035B000A2F2B2FA82F2A169914008435A498831D5
:1035C000086000E01CE0081D006820F44030616ADB
:1035D000084355498C310860012052490867FFF7BC
:1035E000B1FA054606E0FFF7ADFA401B022801D903
:1035F000032005E74C480068C0F340700028F2D073
:10360000207800F0200020287ED100BF002000900C
:1036100045484030006840F08050434940310860E0
:103620000846006800F08050009000BF00BF3F488F
:10363000006840F480703D490860FFF783FA054652
:1036400006E0FFF77FFA401B022801D90320D7E6E6
:103650003648006800F480700028F2D0324870309C
:10366000006800F440764EB3208D00F44070B04204
:1036700024D02D487030006820F4407601202C4979
:10368000086000200860284870300660006800F07C
:10369000010098B1FFF756FA054608E0FFF752FA25
:1036A000401B41F28831884201D90320A8E61E4818
:1036B00070300068C0F340000028EFD000BF208DBC
:1036C00000F44070B0F5407F0CD117480830006816
:1036D00020F4F810174AA16A114008431249083132
:1036E000086007E010480830006820F4F8100E4920
:1036F000083108600C4870300068218DC1F30B015F
:1037000008430949703100E001E0086000BF2078FB
:1037100000F01000102803D194F82C00064908602E
:1037200000206DE600004742003802400070004073
:10373000400E4742FFFCFF0FE011474270B50446C0
:103740000D4600266D48006800F00F00A84209D21F
:103750006A490D700846006800F00F00A84201D0C9
:10376000012070BD207800F00200022807D16448D3
:10377000006820F0F000A1680843614908602078E3
:1037800000F00100002877D06068012807D15C486C
:1037900008380068C0F34040B8B90120E1E760682C
:1037A000022802D06068032807D15548083800680D
:1037B000C0F3406048B90120D3E751480838006899
:1037C000C0F3400008B90120CBE74D48006820F065
:1037D0000300616808434A490860FFF7B3F90646E9
:1037E0006068012810D108E0FFF7ACF9801B41F2B6
:1037F0008831884201D90320B3E74148006800F0CE
:103800000C000428F0D137E06068022810D108E0ED
:10381000FFF798F9801B41F28831884201D90320D3
:103820009FE73748006800F00C000828F0D123E03B
:103830006068032810D108E0FFF784F9801B41F28B
:103840008831884201D903208BE72D48006800F0B9
:103850000C000C28F0D10FE008E0FFF773F9801B93
:1038600041F28831884201D903207AE72448006870
:1038700000F00C000028F0D12048006800F00F0094
:10388000A84209D91D490D700846006800F00F00D4
:10389000A84201D0012064E7207800F00400042849
:1038A00007D11748006820F4E050E1680843144944
:1038B0000860207800F00800082808D11048006847
:1038C00020F46040216940EAC1000D49086000F021
:1038D0004FF80B49096801F0F001F02292FAA2F2C8
:1038E000B2FA82F2D140074A515CC84006490860EA
:1038F0000020FFF733FC002033E70000003C0240CB
:1039000008380240692401082C030020014800689F
:10391000704700002C03002000B5FFF7F7FF0749B0
:10392000096801F4E0514FF4E05292FAA2F2B2FABF
:1039300082F2D140024A515CC84000BD08380240C2
:103940007924010800B5FFF7E1FF0749096801F490
:1039500060414FF4604292FAA2F2B2FA82F2D14090
:10396000024A515CC84000BD083802407924010871
:1039700070B50021002200230020274C246804F0A9
:103980000C0424B1042C04D0082C41D103E02348BA
:1039900040E023483EE0204C241F246804F03F010F
:1039A0001D4C241F246804F4800484B11C4CB4FB17
:1039B000F1F5194C241F246847F6C076344096FA76
:1039C000A6F6B6FA86F6F44005FB04F20FE0134CB7
:1039D000B4FBF1F5104C241F246847F6C076344040
:1039E00096FAA6F6B6FA86F6F44005FB04F20A4CFF
:1039F000241F246804F440344FF4403595FAA5F5AB
:103A0000B5FA85F5EC40641C6300B2FBF3F001E00D
:103A1000024800BF00BF70BD083802400024F40017
:103A200000127A0038B504460025207800F0010025
:103A3000002874D0F748006800F00C0004280DD06E
:103A4000F448006800F00C00082813D1F148001F6A
:103A5000006800F48000B0F5800F0BD1ED48083805
:103A60000068C0F34040002859D06068002856D153
:103A7000012038BD00BF6068B0F5803F08D1E5483F
:103A80000838006840F48030E249083908601EE0D8
:103A90006068B0F5A02F0DD1DE480838006840F40A
:103AA0008020DC49083908600846006840F480300E
:103AB00008600CE0D7480838006820F48030D54909
:103AC000083908600846006820F48020086000BFBC
:103AD000606890B1FFF736F8054606E0FFF732F868
:103AE000401B642801D90320C3E7CA48083800688E
:103AF000C0F340400028F1D011E0FFF723F805465D
:103B000006E0FFF71FF8401B642801D90320B0E747
:103B1000C04808380068C0F340400028F1D1207840
:103B200000F00200022869D1BA48006800F00C00D9
:103B300058B1B848006800F00C00082821D1B548F9
:103B4000001F006800F48000D8B9B2480838006847
:103B5000C0F3400020B1E068012801D0012088E7CF
:103B6000AC480838006820F0F800F82292FAA2F277
:103B7000B2FA82F2216991400843A64908390860E7
:103B80003CE0E06828B30120A3490860FEF7DAFFB3
:103B9000054606E0FEF7D6FF401B022801D90320A8
:103BA00067E79C4808380068C0F340000028F1D05F
:103BB00098480838006820F0F800F82292FAA2F23B
:103BC000B2FA82F2216991400843924908390860AB
:103BD00014E0002090490860FEF7B4FF054606E0B7
:103BE000FEF7B0FF401B022801D9032041E78948B6
:103BF00008380068C0F340000028F1D1207800F0B8
:103C0000080008282CD16069A8B101208349086008
:103C1000FEF798FF054606E0FEF794FF401B0228DA
:103C200001D9032025E77B486C300068C0F34000D1
:103C30000028F1D014E0002078490860FEF782FFE8
:103C4000054606E0FEF77EFF401B022801D903204F
:103C50000FE770486C300068C0F340000028F1D1D5
:103C6000207800F0040004287FD100BF00200090DD
:103C700068483830006840F0805066493831086044
:103C80000846006800F08050009000BF00BF644804
:103C9000006840F4807062490860FEF753FF0546F3
:103CA00006E0FEF74FFF401B022801D90320E0E6A3
:103CB0005B48006800F480700028F2D000BFA06864
:103CC000012808D153486830006840F0010051498C
:103CD000683108601DE0A06805280DD14D486830A6
:103CE000006840F004004B496831086008460068ED
:103CF00040F0010008600CE046486830006820F0A1
:103D000001004449683108600846006820F004005A
:103D1000086000BFA068A0B1FEF714FF054608E0E8
:103D2000FEF710FF401B41F28831884201D9032081
:103D30009FE6384868300068C0F340000028EFD0A4
:103D400013E0FEF7FFFE054608E0FEF7FBFE401B12
:103D500041F28831884201D903208AE62D48683033
:103D60000068C0F340000028EFD1A069F0B32948F3
:103D7000006800F00C00082871D0A069022858D112
:103D8000002025490866FEF7DDFE054606E0FEF741
:103D9000D9FE401B022801D903206AE61D480838D5
:103DA0000068C0F340600028F1D1D4E9070108435E
:103DB00047F6C07292FAA2F2B2FA82F2616A9140B8
:103DC00008430122A16AC2EB51014FF4403292FA3A
:103DD000A2F2B2FA82F2914008434FF0706292FA76
:103DE000A2F2B2FA82F2E16A914000E039E00843BF
:103DF0000849091F0860012007490866FEF7A2FE6E
:103E000005460FE0FEF79EFE401B02280AD903205C
:103E10002FE600000838024000004742800E47426B
:103E20000070004010480068C0F340600028E9D0EE
:103E300017E000200D490866FEF784FE054606E0FF
:103E4000FEF780FE401B022801D9032011E6064838
:103E50000068C0F340600028F2D102E0FFE70120D3
:103E600007E6002005E60000003802400000474257
:103E700070B504460D460CB9012070BD94F82C00B5
:103E800028B9002084F82D00204600F011F8022007
:103E900084F82C00211D2068FDF7F2FF2946D4E9A3
:103EA0000002FEF757F8012084F82C000020E4E718
:103EB00010B50446FEF796FC10BD70B504460D46DD
:103EC00094F82C00022800D170BD022084F82C0048
:103ED00029462068FEF70EF8012084F82C00002007
:103EE000F2E770B504460D46164694F82C000228F9
:103EF00000D170BD022084F82C003246294620688B
:103F0000FDF7FFFF2868022803D1052084F82C0064
:103F100002E0012084F82C000020EAE770B58AB0A6
:103F200004460D460026032084F83400606C032804
:103F300020D0B5F5805F04D1A06B40F08050A06325
:103F40001CE0B5F5006F07D1204605F0A8FA06463B
:103F5000A06B3043A06311E03DB9204605F06AFA3A
:103F60000646A06B3043A06308E0A06B40F0006001
:103F7000A06303E0A06B40F08050A063A06B40B151
:103F800040F2FF5021688863012084F834000AB0B1
:103F900070BD60680490A0680590E0680690079581
:103FA00060690890A069099007A807C88DE8070014
:103FB000206804A90EC904F0ADFC012084F8340087
:103FC0000020E4E730B503460022586E020E900947
:103FD0000870C2F38300487002F003008870586EC6
:103FE000C0F30742CA70B3F86400C0F307220A7135
:103FF00093F864204A71986E020E4FF6FF7000EA43
:104000000210C880986EC0F30742C88840EA1210B8
:10401000C88002F00F0008726820C05AC0F307225F
:10402000D0094872C2F380108872C2F34010C8727F
:10403000C2F30010087300204873586C00283ED16A
:104040009007000D08616820C25C086940EA8200A0
:104050000861D86E020E086940EA92100861C2F346
:10406000C200087502F007004875D86EC0F3074219
:1040700050098875C2F38200C8759007400F087612
:104080006C20C05AC0F30722087E40EAD21008769E
:104090000869401C58650C7E586DA41C0125A5407C
:1040A000684358650C7A0120A0409865D3E915044F
:1040B000640A6043D8654FF400741C6630E0586CA5
:1040C000012821D16820C25C9006800A0861D86E60
:1040D000020E086940EA02200861D86EC0F3074268
:1040E0000869104308616C20C05AC0F307220869B0
:1040F000441C4FF48060A4FB00045865D8654FF45D
:1041000000749C651C660BE040F2FF501C68A063C5
:10411000986B40F080509863012083F8340030BDE4
:10412000C2F3801001F8190F9006400E48706C2001
:10413000C25C487840EAD210487002F07F00887074
:10414000186F020ED009C870C2F341100871C2F393
:10415000820048719007000F8871186FC0F3074202
:10416000887940EA92108871C2F34010C87100202B
:10417000087202F0010048727020C05AC0F3072292
:10418000D0098872C2F38010C872C2F3401008735D
:10419000C2F300104873C2F38100887302F0030079
:1041A000C8737020C25C5008087401204874193923
:1041B0000020B4E70246506C0860906C4860D06CF8
:1041C0008860106DC860506D0861906D4861D06D59
:1041D0008861106EC86100207047F8B50446042657
:1041E0000025002000906946204605F00AF90546A2
:1041F00015B1A06B2843A0630098C0F34326304656
:10420000F8BD10B504460CB9012010BD94F8340077
:1042100020B900202077204600F050F8032084F8D1
:104220003400204600F008F80020A063206301203D
:1042300084F834000020E8E730B589B00446002552
:104240000020039004900590069007907620089037
:1042500006A807C88DE80700206803A90EC904F066
:1042600059FB002014490860206804F06DFB012010
:104270001149A039C1F8A0000220FEF7A4FA204697
:1042800005F048F8054645B1012084F83400A06BDC
:104290002843A063012009B030BD204604F0BCFFD4
:1042A00005463DB1012084F83400A06B2843A0638B
:1042B0000120F0E70020EEE7A080254210B586B08F
:1042C00004461949206888422CD100BF0020009084
:1042D0001648006840F40060144908600846006809
:1042E00000F40060009000BF00BF4FF4F850019050
:1042F0000220029000200390032004900C200590DF
:1043000001A90B48FEF702FB042001900220029055
:1043100000200390032004900C20059001A905487B
:10432000FEF7F4FA06B010BD002C014044380240FC
:1043300000080240000C02402DE9F04F87B004460F
:104340008A4690461E46DDF840900025FEF7FAFBAF
:104350000090AB465746BAF1000F07D1A06B40F072
:104360000060A063012007B0BDE8F08F94F834002E
:1043700001287DD10020A06308EB0601E06D814299
:1043800005D9A06B40F00070A0630120EBE703208B
:1043900084F8340000202168C862606C012801D0D4
:1043A0004FEA48284FF40071206804F02BFB0546C3
:1043B00055B140F2FF5021688863A06B2843A06389
:1043C000012084F83400CEE74FF0FF3001907002F6
:1043D000029090200390022004900020059001207C
:1043E000069001A9206804F06BFA012E07D902207B
:1043F00020634146206804F071FB054606E0012079
:1044000020634146206804F086FB054655B140F222
:10441000FF5021688863A06B2843A063012084F8C3
:104420003400A0E72AE02068406B00F4004068B147
:104430004FF0000B06E0206804F08BFA47F82B00E1
:104440000BF1010BBBF1080FF5D32037B9F1000FC9
:1044500005D0FEF777FB0099401A48450ED340F28D
:10446000FF5021688863A06B40F00040A06300E02B
:1044700082E0012084F83400032074E72068406B58
:1044800040F22A3108400028CDD02068406B00F46B
:104490008070A0B1012E12D9606C03280FD0206863
:1044A00004F000FC054655B140F2FF5021688863D6
:1044B000A06B2843A063012084F8340053E72068F0
:1044C000406B00F0080058B140F2FF50216888634B
:1044D000A06B40F00800A063012084F8340042E79C
:1044E0002068406B00F0020058B140F2FF50216894
:1044F0008863A06B40F00200A063012084F83400C0
:1045000031E72068406B00F0200058B140F2FF50C6
:1045100021688863A06B40F02000A063012084F82C
:10452000340020E719E0206804F013FA38603F1DDA
:10453000B9F1000F05D0FEF705FB0099401A484578
:104540000BD340F2FF5021688863A06B40F000401D
:10455000A063012084F8340005E72068406B00F474
:1045600000100028DFD140F2FF502168886301204D
:1045700084F834000020F6E6A06B40F00050A06301
:104580000120F0E62DE9F04F87B004468846174633
:104590001E46DDF840B00025FEF7D4FA0090A9468B
:1045A000C246B8F1000F07D1A06B40F00060A063D5
:1045B000012007B0BDE8F08F94F8340001287DD1C8
:1045C0000020A063B919E06D814205D9A06B40F0CD
:1045D0000070A0630120ECE7032084F83400002081
:1045E0002168C862606C012800D07F024FF400711E
:1045F000206804F007FA054655B140F2FF502168E3
:104600008863A06B2843A063012084F83400D0E7BE
:10461000012E07D9202020633946206804F060FB72
:10462000054606E0102020633946206804F075FB3B
:10463000054655B140F2FF5021688863A06B2843BE
:10464000A063012084F83400B3E74FF0FF300190FD
:1046500070020290902003900020049005900120A9
:10466000069001A9206804F02BF92AE02068406B2D
:1046700000F4804070B14FF0000906E00AEB8901B8
:10468000206804F07EF909F10109B9F1080FF5D3AA
:104690000AF1200ABBF1000F05D0FEF753FA00998A
:1046A000401A58450DD340F2FF5021688863A06B33
:1046B0002843A063012084F8340000E05EE003207A
:1046C00077E72068406B40F21A3108400028CDD0CF
:1046D0002068406B00F48070A0B1012E12D9606C8C
:1046E00003280FD0206804F0DDFA054655B140F2EA
:1046F000FF5021688863A06B2843A063012084F8E1
:10470000340056E72068406B00F0080058B140F2D2
:10471000FF5021688863A06B40F00800A06301206F
:1047200084F8340045E72068406B00F0020058B17F
:1047300040F2FF5021688863A06B40F00200A06344
:10474000012084F8340034E72068406B00F010004A
:1047500058B140F2FF5021688863A06B40F0100010
:10476000A063012084F8340023E740F2FF50216861
:104770008863012084F8340000201AE7A06B40F021
:104780000050A063012014E7704710B504460CB92F
:10479000012010BD606A00B900BF0021A16294F839
:1047A000510028B9002084F85000204600F034F869
:1047B000022084F851002068006820F04000216841
:1047C0000860D4E901010843E1680843216908430E
:1047D00061690843218B01F400710843E1690843D2
:1047E000216A0843A16A0843216808600421A0697E
:1047F00001EA1040616A0843216848602068C06986
:1048000020F400602168C86100206065012084F800
:1048100051000020BDE7000010B586B004464649AF
:10482000206888423DD100BF0020009043480068C6
:1048300040F48050414908600846006800F4805008
:10484000009000BF00BFA020019002200290002035
:104850000390032004900520059001A93848FEF735
:1048600055F83848384908604FF0C060486040212A
:10487000354881600021C1604FF4806101610021F1
:1048800041618161C16101624162FDF7D7FE18B1EA
:10489000A9212EA007F0DEFD00BF2B48A064846391
:1048A00048E02E492068884221D100BF00200090B6
:1048B0002248001F006840F480402049091F08601A
:1048C0000846006800F48040009000BF00BF4FF42D
:1048D00004400190022002900020039003200490E5
:1048E0000520059001A91E48FEF710F822E01D4999
:1048F000206888421ED100BF002000900F48006849
:1049000040F480100D4908600846006800F48010EB
:10491000009000BF00BF4FF4207001900220029071
:1049200000200390032004900520059001A90E4863
:10493000FDF7ECFF06B010BD0030014044380240E6
:104940000000024058640240140800202E2E2F530D
:1049500072632F7370692E630000000000380040FE
:104960000004024000500140001402402DE9F843C9
:1049700004460D4617461E464FF00008C14600BFCC
:1049800094F85000012802D10220BDE8F8830120EC
:1049900084F8500000BFFEF7D5F8804694F8510027
:1049A000012802D04FF00209A9E005B117B94FF074
:1049B0000109A4E0032084F851000020606525630C
:1049C000A786E786A063A087E08760642064A0686C
:1049D000B0F5004F05D12068006840F480402168A0
:1049E00008602068006800F04000402805D020687A
:1049F000006840F0400021680860E068B0F5006F92
:104A00002AD1606810B1E08E012806D1288821687B
:104A1000C860AD1CE08E401EE08619E0206880680A
:104A200000F00200022807D128882168C860AD1C68
:104A3000E08E401EE0860BE03EB1701C40B1FEF7F8
:104A400081F8A0EB0800B04202D34FF0030956E012
:104A5000E08E0028E2D129E0606810B1E08E0128E4
:104A600006D12878216808736D1CE08E401EE08610
:104A700019E02068806800F00200022807D1287839
:104A8000216808736D1CE08E401EE0860BE03EB18D
:104A9000701C40B1FEF756F8A0EB0800B04202D3FC
:104AA0004FF003092BE0E08E0028E2D133460122CB
:104AB00002212046CDF8008005F0A2FA10B14FF097
:104AC00003091CE042463146204605F031FA20B188
:104AD0004FF001092020606511E0A06850B900BFC7
:104AE000002000902068C0680090206880680090D6
:104AF00000BF00BF606D08B14FF0010900BF012089
:104B000084F8510000BF002084F8500000BF4846E0
:104B10003BE700002DE9F04104460E46154600270C
:104B200000BF94F85000012802D10220BDE8F081B6
:104B3000012084F8500000BF94F85100012801D0F2
:104B4000022748E006B10DB9012744E0032084F8AC
:104B50005100002060652663A586E586A063606439
:104B60002064A087E087A068B0F5004F05D12068D9
:104B7000006840F48040216808601A48A16C08640D
:104B80001948A16CC8631948A16CC8640020A16CC5
:104B90000865E38ED4F800C00CF10C02216BA06C08
:104BA000FDF7C2FD2068006800F04000402805D0F5
:104BB0002068006840F04000216808602068406874
:104BC00040F02000216848602068406840F0020002
:104BD0002168486000BF00BF002084F8500000BF7B
:104BE0003846A3E7819F00088F9F0008599F00085F
:104BF00070477047042808D14FF0E021096941F05F
:104C000004014FF0E022116107E04FF0E021096953
:104C100021F004014FF0E02211617047704770B538
:104C200004462546681EB0F1807F01D301200FE0C5
:104C3000681E4FF0E02148610F214FF0FF3003F074
:104C40001FF900204FF0E021886107200861002053
:104C500070BD10B5FFF7E2FF10BD7047704710B58B
:104C60000346002200BF93F83800012801D102203A
:104C700010BD012083F8380000BF22F0FF00CC688F
:104C800040EA040222F440708C6840EA040222F4F4
:104C900080604C6840EA040222F400600C6840EA3C
:104CA000040222F480500C6940EA040222F400500D
:104CB0004C6940EA040222F480408C6940EA040214
:104CC00022F400408C6940EA04021868426400BF84
:104CD000002083F8380000BF00BFC9E7024600BFCC
:104CE00092F83800012801D102207047012082F893
:104CF000380000BF022082F839001068406820F0B8
:104D0000700013685860106840680B681843136897
:104D100058601068806820F0800013689860106800
:104D200080684B68184313689860012082F8390046
:104D300000BF002082F8380000BF00BFD5E710B5E3
:104D400004460CB9012010BD94F8390028B90020A0
:104D500084F83800204600F00DF8022084F839006D
:104D6000211D206806F0E8FE012084F839000020AB
:104D7000E9E7000038B5044649492068884218D15F
:104D800000BF002000904748006840F001004549FE
:104D900008600846006800F00100009000BF00BFF6
:104DA000002205211920FEF725FA1920FEF715FA31
:104DB00074E02068B0F1804F11D100BF0020009056
:104DC0003848001F006840F001003649091F08609C
:104DD0000846006800F00100009000BF5EE0324924
:104DE0002068884211D100BF002000902D48001F8C
:104DF000006840F002002B49091F0860084600685F
:104E000000F00200009000BF48E028492068884276
:104E100011D100BF002000902248001F006840F020
:104E200004002049091F08600846006800F00400DB
:104E3000009000BF32E01E49206888421AD100BFAE
:104E4000002000901748001F006840F0200015491E
:104E5000091F08600846006800F02000009000BFAD
:104E600000BF002201213720FEF7C4F93720FEF7EA
:104E7000B4F913E00F49206888420FD100BF002029
:104E800000900848006840F00200064908600846A3
:104E9000006800F00200009000BF00BF38BD0000B5
:104EA0000000014044380240000400400008004077
:104EB000001400400004014001460868C06840F04A
:104EC00001000A68D0600868006840F001000A68C4
:104ED0001060002070472DE9F04104460D46002681
:104EE00000BF94F83800012802D10220BDE8F0810B
:104EF000012084F8380000BF022084F839002068BF
:104F0000866826F0770626F47F4620688660286843
:104F100050283BD00CDC202860D004DC002853D083
:104F2000102865D155E030285DD0402860D141E09F
:104F3000602835D070280DD0B0F5805F03D0B0F573
:104F4000005F55D115E02068806820F007002168D7
:104F500088604EE0D5E902136A68206806F06CFEAE
:104F60002068866826F0770646F077062068866017
:104F70003FE0D5E902136A68206806F05DFE20680C
:104F8000806840F480402168886032E0EA6869689F
:104F9000206806F047FF5021206806F059FE28E0FF
:104FA000EA686968206806F052FF6021206806F010
:104FB0004FFE1EE0EA686968206806F033FF402172
:104FC000206806F045FE14E00021206806F040FE4F
:104FD0000FE01021206806F03BFE0AE02021206847
:104FE00006F036FE05E03021206806F031FE00E0D4
:104FF00000BF00BF012084F8390000BF002084F802
:10500000380000BF00BF71E7704710B50446206844
:105010000069C0F34000D8B12068C068C0F3400008
:10502000B0B16FF00200216808610120207620688D
:10503000806900F0030018B12046FFF7E5FF05E0A6
:10504000204600F0F3F8204600F0B7F90020207663
:1050500020680069C0F38000D8B12068C068C0F340
:105060008000B0B16FF00400216808610220207652
:105070002068806900F4407018B12046FFF7C4FF33
:1050800005E0204600F0D2F8204600F096F9002016
:10509000207620680069C0F3C000D8B12068C068DD
:1050A000C0F3C000B0B16FF00800216808610420AF
:1050B00020762068C06900F0030018B12046FFF791
:1050C000A3FF05E0204600F0B1F8204600F075F996
:1050D0000020207620680069C0F30010D8B1206855
:1050E000C068C0F30010B0B16FF010002168086113
:1050F000082020762068C06900F4407018B120466E
:10510000FFF782FF05E0204600F090F8204600F00F
:1051100054F9002020762068006900F0010058B1A1
:105120002068C06800F0010030B16FF00100216814
:105130000861204600F068F920680069C0F3C010DB
:1051400058B12068C068C0F3C01030B16FF0800063
:10515000216808612046FFF780FD20680069C0F3E0
:10516000801058B12068C068C0F3801030B16FF073
:10517000400021680861204600F047F92068006976
:10518000C0F3401058B12068C068C0F3401030B17F
:105190006FF02000216808612046FFF75FFD10BD19
:1051A00010B586B004461B49206888420DD11020F6
:1051B00001900220029000200390049002200590AC
:1051C00001A91548FDF7A2FB22E014492068884296
:1051D0000DD18014019002200290002003900490D1
:1051E0000220059001A90E48FDF790FB10E00D4943
:1051F000206888420CD140200190022002900020BB
:10520000039004900320059001A90748FDF77EFB59
:1052100006B010BD00040040000402400008004039
:10522000000C02400004014000080240704770B5C5
:1052300004460D460CB9012070BD94F8390028B918
:10524000002084F83800204600F017F8022084F887
:105250003900211D206806F06FFC2068006820F0EE
:1052600008002168086020680068284321680860F9
:10527000012084F839000020DEE7704770B504464D
:105280000D46164600BF94F83800012801D10220CF
:1052900070BD012084F8380000BF022084F8390076
:1052A00036B1042E1BD0082E31D00C2E5ED145E035
:1052B0002946206806F0D6FC2068806940F0080086
:1052C000216888612068806920F004002168886175
:1052D00020688069296908432168886147E0294678
:1052E000206806F0F7FC2068806940F400602168BF
:1052F00088612068806920F4806021688861206866
:105300008069296940EA0120216888612FE02946E7
:10531000206806F01BFD2068C06940F00800216885
:10532000C8612068C06920F004002168C861206855
:10533000C069296908432168C86118E029462068C6
:1053400006F040FD2068C06940F400602168C86133
:105350002068C06920F480602168C8612068C06945
:10536000296940EA01202168C86100E000BF00BF50
:10537000012084F8390000BF002084F8380000BF05
:1053800000BF85E710B504460CB9012010BD94F8A4
:10539000390028B9002084F83800204600F00CF8C5
:1053A000022084F83900211D206806F0C5FB012089
:1053B00084F839000020E9E77047704730B50446AB
:1053C0000D4601222946206806F028FC0C49206879
:1053D000884203D00B492068884201D1012000E0B7
:1053E000002028B12068406C40F4004021684864E7
:1053F0002068006840F0010021680860002030BD8E
:1054000000000140000401407047704770470000F1
:105410002DE9F0470446206805682068C6682068C2
:1054200047694FF00008C14605F00F08B8F1000FBA
:105430000AD105F0200038B106F0200020B1204646
:1054400006F045FDBDE8F087B8F1000F6DD007F01C
:10545000010018B906F49070002866D005F001002C
:1054600030B106F4807018B1E06B40F00100E063E9
:1054700005F0040030B107F0010018B1E06B40F016
:105480000200E06305F0020030B107F0010018B13E
:10549000E06B40F00400E06305F0080030B107F075
:1054A000010018B1E06B40F00800E063E06B68B306
:1054B00005F0200028B106F0200010B1204606F0CB
:1054C00006FD20684069C0F38019E06B00F0080019
:1054D00010B9B9F1000F22D0204606F0D8FC2068A0
:1054E000406900F04000B0B12068406920F0400001
:1054F00021684861606B50B11748616B0865606B4B
:10550000FCF764FF10B1606B016D88470CE020462A
:10551000FFF77CFF08E02046FFF778FF04E0204615
:10552000FFF774FF0020E0638CE705F0800030B1E6
:1055300006F0800018B1204606F0CAFE82E705F0AA
:10554000400030B106F0400018B1204606F0AFFC34
:1055500078E700BF76E700007BBE000810B5044680
:105560000CB9012010BDA06900B100E000BF94F8A3
:10557000390028B9002084F83800204600F028F8C7
:10558000242084F839002068C06820F40050216885
:10559000C860204606F0E8FC2068006920F49040CE
:1055A000216808612068406920F02A00216848616C
:1055B0002068C06840F400502168C8600020E063A3
:1055C000202084F8390084F83A000020CAE700005F
:1055D00010B586B0044616492068884226D100BF1F
:1055E000002000901348006840F010001149086046
:1055F0000846006800F01000009000BF00BF4FF4A4
:10560000C0600190022002900120039003200490CA
:105610000720059001A90848FDF778F90022032129
:105620002520FDF7E7FD2520FDF7D7FD06B010BDCD
:1056300000100140443802400000024070472DE94C
:10564000F84304460D4616461F464FF0000994F8ED
:10565000390020285CD105B116B90120BDE8F883D6
:1056600000BF94F83800012801D10220F6E701209C
:1056700084F8380000BF0020E063212084F839005E
:10568000FDF760FA8146A684E6842BE0E08C401E9C
:10569000E084A068B0F5805F16D14B4600228021DF
:1056A0002046009706F048FE08B10320D6E7A8463A
:1056B000B8F80000C0F3080021684860206908B904
:1056C000AD1C0FE06D1C0DE04B46002280212046F2
:1056D000009706F031FE08B10320BFE715F8010B73
:1056E00021684860E08C0028D0D14B460022402140
:1056F0002046009706F020FE08B10320AEE72020E8
:1057000084F8390000BF002084F8380000BFA5E706
:105710000220A3E7704700BFFEE7000070B5044613
:105720000D46E5B92068C06881B2E26A901CE0626B
:105730001180608E401E6086608E00283ED12068F9
:1057400040684FF69F71084021684860608DA8BB93
:10575000012084F841002046FDF740FB2EE0184967
:105760002068884201D1174801E04FF04020C0680E
:1057700081B2E26A901CE0621180608E401E6086F9
:10578000608ED8B90E492068884201D10D4801E0E9
:105790004FF04020406820F06000094A21689142A3
:1057A00001D1084901E04FF040214860608D28B9DF
:1057B000012084F841002046FDF710FB70BD000079
:1057C000003800400034004070B504460D46DDB995
:1057D000616A881C606208882168C860608D401E0C
:1057E0006085608D00283DD1206840684FF65F716C
:1057F000084021684860608EA0BB012084F8410009
:105800002046FDF7EBFA2DE0616A881C606208888B
:10581000154A2168914201D1144901E04FF040211D
:10582000C860608D401E6085608DD8B90E492068C3
:10583000884201D10D4801E04FF04020406820F03F
:10584000A000094A2168914201D1084901E04FF0C6
:1058500040214860608E28B9012084F8410020462C
:10586000FDF7BCFA70BD0000003800400034004075
:105870001CB5044620688068019094F84100042813
:1058800031D1019800F0010038B120684068C0F3C0
:10589000801010B1204600F05BF8019800F0400045
:1058A000402820D120684068C0F34010D8B120685B
:1058B00040684FF69F7108402168486000BF002093
:1058C00000902068C068009020688068009000BF49
:1058D00000BF012084F84100606C40F00200606469
:1058E0002046FDF77CFA94F8410003282FD1019857
:1058F00000F00200022807D120684068C0F3C01001
:1059000010B1204600F040F8019800F00800082887
:105910001DD120684068C0F34010C0B120684068C5
:105920004FF65F7108402168486000BF002000907A
:1059300020688068009000BF00BF012084F841000B
:10594000606C40F0040060642046FDF748FA1CBD1E
:1059500010B504462068C06881B2E26A901CE0621B
:105960001180608E401E6086608E60B9206840683D
:105970004FF69F71084021684860012084F841007B
:105980002046FDF777FB10BD10B50446616A881C00
:10599000606208882168C860608D401E6085608DE7
:1059A00060B9206840684FF65F7108402168486020
:1059B000012084F841002046FDF7A9FB10BD00003E
:1059C0002DE9F14F96B0169818B9012017B0BDE82F
:1059D000F08F0020139000260122FE49FE4808F0B7
:1059E000A7F8FE4908700846007808B10220EDE7E4
:1059F0001698401EFA4A52F82000A0F12A01F648F3
:105A000007F034FEF74B2D2207A9F34808F0A6F95A
:105A1000F24908700846007808B10320D6E7EE483E
:105A200007F076FD30208DF81C003A208DF81D001F
:105A3000EDA1EE4806F010FD05230222EB49EC48EB
:105A4000FFF7FDFD0F232D2207A9E948FFF7F7FD1A
:105A500005230222E549E648FFF7F1FD012207A9E7
:105A6000DD4808F065F8DD4908700846007808B19F
:105A70000420ABE7DF48C0680690DF4906988842FB
:105A800001D91A20A2E7D74BDC49D348069A08F07F
:105A900065F9D24908700846007808B1052095E7F5
:105AA000CD4807F035FDD548057A2D02407A0544EA
:105AB0002D02D248807A05442D02D048C07A054490
:105AC0000698854201D0062080E7CC4805792D0252
:105AD000407905442D02C948807905442D02C74804
